:100000000C94140C0C94310C0C94310C0C94310C99
:100010000C94310C0C94310C0C94310C0C94C016D3
:100020000C94310C0C94310C0C94310C0C94310C5C
:100030000C94310C0C94310C0C94310C0C94310C4C
:100040000C94310C0C94310C0C94310C0C94310C3C
:100050000C94310C0C94310C0C94310C0C94310C2C
:100060000C94310C0C94310C2E16301633164116AC
:1000700043164716591659164A165916591659163F
:10008000591659164D16102814281B2821281E28E9
:100090001E282428050A0605060A050A0609060A76
:1000A000050A0609060A050A0609060A050A0605DA
:1000B000060A050A06050A06090A06090A060000D4
:1000C00000000000000000000010000000100E0002
:1000D000001001000090000000900000009000005F
:1000E00018900000189000001808010018040E0075
:1000F00018020000180100009800000058000000DD
:10010000380000FE1F000000380000005800001EEC
:100110009804002218070022180700229807001EE2
:1001200018880F2218900022189000220090001EBC
:100130000090070000900000009000000090000078
:1001400000900F00000000000010000000900F0061
:100150000090000000900000009000000090070058
:1001600018900000189000001889000018870F00F0
:1001700018070000180F0000980000005800000049
:10018000380000FE1F000000380000005800001E6C
:100190009800002218010022180200221804001EF4
:1001A00018080E2218100122189000220090001E3C
:1001B000009000000090000000900000001001007E
:1001C00000100E000000000000100000009003006E
:1001D00000900400009008000090080000900800C3
:1001E0003090080030900800F69F0400368003002D
:1001F0003600001C06000022060000023602000243
:1002000036030002F61F003A36130022361200228F
:100210000610001C0610000036100000361000FE0C
:10022000F71F070030900800309000000090000099
:1002300000100700001008000010080000900800DF
:100240000010070000000000001000000010070070
:1002500000900800009000000090000000100700CF
:1002600030100800301008FEF79F08003610070015
:100270003610001C06100022061000023611000283
:1002800036130002F61F003A360300223601002220
:100290000600001C060000003600000036000000CA
:1002A000F69F030030900400309008000090080092
:1002B00000900800009008000090080000900400E2
:1002C00000900300000000000010000000900300F8
:1002D00000900400009008000090080000900800C2
:1002E0003090080030900800F69F0400368003002C
:1002F0003600001C360000223600000236020002E2
:1003000036030002F61F003A36130022361200228E
:100310003610001C3610000036100000361000FEAB
:10032000F71F070030900800309000000090000098
:1003300000100700001008000010080000900800DE
:10034000001007000000000000100000001007006F
:1003500000900800009000000090000000100700CE
:1003600030100800301008FEF79F08003610070014
:100370003610001C36100022361000023611000222
:1003800036130002F61F003A36030022360100221F
:100390003600001C36000000360000003600000069
:1003A000F69F030030900400309008000090080091
:1003B00000900800009008000090080000900400E1
:1003C00000900300000000000010000000900300F7
:1003D00000900400009008000090080000900800C1
:1003E000309008003090080030900400F09F031C0B
:1003F0003000002230000002300000023000000215
:100400003000003A30000022300000223000001C92
:100410003000000031000000330000FEFF1F00002C
:100420003310070031900800309000000090000069
:1004300000100700001008000010080000900800DD
:10044000001007000000000000100000001007006E
:1004500000900800009000000090000000100700CD
:100460003010080032100800339008FEFF1F07000C
:10047000330000003200001C300000223000000277
:1004800030000002300000023000003A300000224C
:10049000300000223000001C30000000F01F00007F
:1004A0003090030030900400309008000090080065
:1004B00000900800009008000090080000900400E0
:1004C00000900300000000000010000000100E006B
:1004D000001001000090000000900000009000005B
:1004E00030900000309000003610010036080E00F9
:1004F000360400003602000036010000B60000009D
:10050000760000FE3700000076000000B600001CF8
:1005100036090022360E0002360E0002360F0002A7
:1005200036900F3A30900022309000220090001C4C
:100530000090070000900000009000000090000074
:1005400000900F00000000000010000000900F005D
:100550000090000000900000009000000090070054
:10056000309000003090000036920000368E0F0070
:10057000360E0000361E000036010000B6000000F6
:10058000760000FE3700000076000000B600001C78
:10059000360100223602000236040002360800024C
:1005A00036100E3A30100122309000220090001CCC
:1005B000009000000090000000900000001001007A
:1005C00000100E0000000000007100000089000013
:1005D000008900000089000000F900000089000087
:1005E00000890000008900000001000000010000F7
:1005F000FFFF0100FEFF0000FC7F0000F83F00004D
:10060000F01F0000E00F001CC00700228003000262
:1006100000010002FFFF013AFFFF012280010022DA
:100620004001001C20E1000010110000080900FE3C
:100630000709000000090000000900000011000087
:1006400000E100000000000000010000004900007F
:100650000049000000490000004900000049000076
:100660000049000000010000000100C0FFFF07C0BA
:10067000FFFF070008FE03001CFE03001CFC010036
:100680003EFC01003EF800007FF800007F70008C07
:10069000FF700092FF2000C2FFFF07DAFFFF071282
:1006A0000801000C0401000002110000011100FE0D
:1006B00000110000001100000011000000110000F6
:1006C000000100000000000000710000008900002F
:1006D00000890000008900FE07F900000889000079
:1006E0001089001C208900224001000280010002C4
:1006F000FFFF013AFEFF0022FC7F0022F83F001CB2
:10070000F01F0000E00F0000C007000080030000A1
:1007100000010000FFFF0100FFFF010000010000D9
:100720000001000000E100000011000000090000CD
:10073000000900000009000000090000001100008D
:1007400000E1000000000000001000000090040024
:100750000090040000900400009004000090040049
:10076000309004003090043E30100040F21F0080B2
:1007700033000080330000C0330000003400003E2E
:100780003800000230000002300000023000001E7D
:10079000300000023000000230000002F01F003E76
:1007A0003010000030100100301001000010010076
:1007B00000100100001001000010010000100100F5
:1007C0000010000000000000000000000000000019
:1007D00000000000F0010000FC070000FE0F000018
:1007E0000F1E0000071C00800338008003380080C3
:1007F0000338000000380000001C0000001E00004C
:10080000000F000080070000C0030000E0010000AE
:10081000F0000000F0000000F0000000F000000018
:10082000000000000000000060000000F000000078
:10083000F000000060000000000000000000000068
:100840000000000000000000004804000048020012
:100850000048010000C800000048010000480200F4
:100860000048040004080000040800000408000018
:10087000FCFF1F0000081000001C1000003E1000CC
:10088000007F000080FF0000C0FF0100E0FF0300C8
:10089000F0FF0700F8FF0F00FCFF1F00000800003A
:1008A0000008000000080000008803000048040061
:1008B0000048040000C80700004804000048040085
:1008C000004804000000000000000000800000005C
:1008D0008000000080000000800000008000000018
:1008E0008000000080000000800000008000000008
:1008F00080000000FF7F0000000000C0FFFF01C07B
:10090000FFFF01C0FFFF01C0FFFF01C0FFFF0100AB
:1009100000000000FF7F0000800000008000000059
:1009200080000000800000008000000080000000C7
:1009300080000000800000008000000080000000B7
:1009400000000000000000FF01020304050607FF8D
:10095000FFFFFFFFFFFFFFFFFFFFFFFFFFFFFFFFA7
:10096000FFFFFFFFFFFFFF101112131415161718DA
:10097000191A1B1C1D1E1F2021222324252627286F
:10098000292A2B2C2D2E2F3031323334353637385F
:10099000393A3B3C3D3E3F4041424344454647484F
:1009A000494A4B4C4D4E4F5051525354555657583F
:1009B000595A5B5C5D5E5F6061626364656667682F
:1009C000696A6B6C6D6EFFFFFFFFFFFFFFFFFFFFAC
:1009D000FFFFFFFFFFFFFFFFFFFFFFFFFFFFFFFF27
:1009E000FFFFFFFFFFFFFFFFFFFFFFFFFFFFFFFF17
:1009F000FFFFFFFFFFFFFF0FFFFFFFFF05FFFFFFF1
:100A0000FFFFFFFFFFFFFFFFFFFFFF08FFFFFFFFED
:100A1000FFFFFFFFFFFFFFFFFFFFFFFFFF09FFFFDC
:100A2000FFFFFF0AFFFF0BFFFFFFFF0CFFFFFFFFB2
:100A3000FFFFFFFFFFFFFFFFFFFFFFFFFF0DFFFFB8
:100A4000FFFFFF0EFFFFFF0000000000000000009E
:100A50000000000000000000000000000000000096
:100A60000000000000000000000000820086008EF0
:100A7000009E00BE00FF03BE009E008E0086008226
:100A800000000000000000000000008200C200E240
:100A900000F200FA00FF03FA00F200E200C2008256
:100AA00000000000000000000000008601860186B2
:100AB00001860186018703860186018601860186FB
:100AC0000100000000000000007800840002010224
:100AD000010201020102018400480048004800862A
:100AE0000100000000000000000000000000000005
:100AF00000820082008200820082008200C600BA6A
:100B00000002000200020000000000FE03020002DA
:100B1000000200020003000200020002000200FEC8
:100B20000300000000000000000000FF01000100C1
:100B3000010001000100030001000100010001FFAC
:100B40000100000000000044000000000010003818
:100B5000002800480044008400FE00020102010158
:100B60000200000000000044000000000078008443
:100B70000002010201020102010201020184007867
:100B8000000000000000004400000000008200821D
:100B90000082008200820082008200820044003CC9
:100BA0000000000000000000001C002200220022C3
:100BB0000012001200120022004200820082007225
:100BC0000000000000000000000000240000000001
:100BD000003C00400040007800440042006200DC1D
:100BE00000000000000000000000002400000000E1
:100BF00000380044008200820082008200440038F5
:100C000000000000000000000000002400000000C0
:100C10000042004200420042004200420062005C8A
:100C2000000000000000000000100028001000007C
:100C300000000000000000000000000000000000B4
:100C400000000000000000000000000000000000A4
:100C50000000000000000000000000000000000094
:100C60000000000000000000001000100010001044
:100C70000010001000100010001000000010001004
:100C80000000000000000000004400440044004454
:100C90000000000000000000000000000000000054
:100CA0000000000000000000009000900048004894
:100CB00000FE0148002400FF01240024001200125D
:100CC000000000000000002000F8002C0024002498
:100CD00000280030006000E000A000A000A4007C1C
:100CE0000020000000000000000E021101910051E0
:100CF000004E0020001000C801280224022202C178
:100D000001000000000000000038004400440064BE
:100D10000038000C001202310221014101C200FC26
:100D20000100000000000000001000100010001082
:100D300000000000000000000000000000000000B3
:100D40000000000000000000008001600030001082
:100D50000008000800080008000800080010003023
:100D60000060008001000000000600180030002034
:100D700000400040004000400040004000200030A3
:100D800000180006000000000010001000D6006CE3
:100D900000280038002800000000000000000000CB
:100DA0000000000000000000000000000000000043
:100DB000001000100010001000FF011000100010C3
:100DC0000000000000000000000000000000000023
:100DD00000000000000000000000000000180018E3
:100DE00000100010000800000000000000000000DB
:100DF00000000000000000FC0000000000000000F7
:100E000000000000000000000000000000000000E2
:100E100000000000000000000000000000180018A2
:100E20000000000000000000000001800080004081
:100E300000400020002000100010000800080004FE
:100E4000000400020000000000380044004400825A
:100E50000082008200820082008200440044003848
:100E600000000000000000000010001E0010001034
:100E7000001000100010001000100010001000FE04
:100E80000000000000000000003E00420040004062
:100E90000040002000200010000800040002007E36
:100EA0000000000000000000003C00400040004046
:100EB0000040003800400040004000400040003C3E
:100EC0000000000000000000002000300028002882
:100ED000002400220022002100FF0020002000202A
:100EE0000000000000000000007C0004000400047A
:100EF000001C002000400040004000400020001C7A
:100F0000000000000000000000780004000400025F
:100F1000003A0046008200820082008200440038CD
:100F2000000000000000000000FE008000400020E3
:100F30000020001000100008000800080004000451
:100F40000000000000000000007C0082008200829F
:100F50000064001800640042008200820042003CED
:100F60000000000000000000003800440082008201
:100F70000082008200C400B8008000400040003CB5
:100F80000000000000000000000000000000000061
:100F900000180018000000000000000000180018F1
:100FA0000000000000000000000000000000000041
:100FB00000180018000000000000000000180018D1
:100FC00000100010000800000000000000000000F9
:100FD000000001C00030000C000C003000C0000018
:100FE0000100000000000000000000000000000000
:100FF0000000000000FE0100000000FE01000000F3
:1010000000000000000000000000000000000000E0
:101010000002000C003000C000C00030000C0002D4
:101020000000000000000000007E00C2008200807E
:101030000040002000100008000800000008000820
:1010400000000000000000000078008400E200932F
:101050000089008900C900C900E900B20346007C8C
:101060000000000000000000000000000010003838
:10107000002800480044008400FE00020102010133
:10108000020000000000000000000000007E00825E
:1010900000820042003E0042008200820082007E08
:1010A00000000000000000000000000000F80086C2
:1010B000000200010001000100010002000600F82A
:1010C000000000000000000000000000003E0042A0
:1010D0000082008200820082008200820042003E84
:1010E00000000000000000000000000000FE000200
:1010F000000200020002007E00020002000200FE68
:1011000000000000000000000000000000FE0002DF
:10111000000200020002007E000200020002000243
:1011200000000000000000000000000000F0010CC2
:1011300001040002000200C201020104010C01F0DE
:10114000010000000000000000000000008200829A
:1011500000820082008200FE008200820082008203
:1011600000000000000000000000000000FE001071
:10117000001000100010001000100010001000FE01
:1011800000000000000000000000000000780040A7
:101190000040004000400040004000400040003C53
:1011A000000000000000000000000000008200427B
:1011B00000220012000E000A0012006200820002EB
:1011C000010000000000000000000000000200021A
:1011D000000200020002000200020002000200FE03
:1011E00000000000000000000000000000C300C379
:1011F00000C700A500A500AD0099009900810081FD
:1012000000000000000000000000000000820086D6
:10121000008A008A0092009200A200A200C200820E
:1012200000000000000000000000000000780084C2
:1012300000020102010201020102010201840078A0
:10124000000000000000000000000000007E00829E
:10125000008200820042003E000200020002000202
:101260000000000000000000000000000078008482
:101270000002010201020102010201020184007860
:10128000004000800100000000000000003E00421D
:10129000004200420022001E001200220042008292
:1012A00000000000000000000000000000FC0082C0
:1012B00000020006001800600080008000C2003EAE
:1012C00000000000000000000000000000FF01100E
:1012D000001000100010001000100010001000108E
:1012E00000000000000000000000000000820082FA
:1012F0000082008200820082008200820044003C62
:1013000000000000000000000000000000010202D8
:10131000010201840084004400480048003000308D
:1013200000000000000000000000000000010201B9
:10133000021201320132012A014A01CC00CC0084A0
:101340000000000000000000000000000001020298
:101350000184004800300030004800840002010190
:101360000200000000000000000000000001020276
:10137000018400440028001000100010001000102C
:1013800000000000000000000000000000FE01005E
:10139000018000400020001000080004000200FE50
:1013A000010000000000000000F80008000800082C
:1013B00000080008000800080008000800080008ED
:1013C000000800F80000000000020004000400080B
:1013D00000080010001000200020004000400080A5
:1013E0000080000001000000003E002000200020DE
:1013F00000200020002000200020002000200020ED
:101400000020003E000000000020002000300050BE
:101410000058004800880084008400020100000099
:1014200000000000000000000000000000000000BC
:1014300000000000000000000000000000000000AC
:1014400000FF03000000001000200000000000006A
:10145000000000000000000000000000000000008C
:10146000000000000000000000000000000000007C
:10147000003C00400040007800440042006200DC74
:101480000000000000000000000200020002000254
:10149000007A004600820082008200820046003A04
:1014A000000000000000000000000000000000003C
:1014B00000F800040002000200020002000400F82C
:1014C000000000000000000000800080008000801C
:1014D00000B800C4008200820082008200C400BC08
:1014E00000000000000000000000000000000000FC
:1014F00000780084008200FE00020002000400F870
:10150000000000000000000000E0011800080008D2
:1015100000FE010800080008000800080008000894
:1015200000000000000000000000000000000000BB
:1015300000B800C4008200820082008200C400BCA7
:1015400000800040003C0000000200020002000297
:101550000072008A0086008200820082008200827F
:10156000000000000000000000180018000000004B
:10157000001E0010001000100010001000100010DD
:1015800000000000000000000030003000000000FB
:10159000003C00200020002000200020002000202F
:1015A00000200020001E00000002000200020002D5
:1015B000008200620012000E000A00320042008227
:1015C0000000000000000000003C0020002000207F
:1015D000002000200020002000200020002000200B
:1015E00000000000000000000000000000000000FB
:1015F00000CD00330111011101110111011101117F
:1016000001000000000000000000000000000000D9
:101610000072008E008600820082008200820082BA
:1016200000000000000000000000000000000000BA
:1016300000380044008200820082008200440038AA
:10164000000000000000000000000000000000009A
:10165000007A004600820082008200820046003A42
:101660000002000200020000000000000000000074
:1016700000B800C4008200820082008200C400BC66
:1016800000800080008000000000000000000000DA
:1016900000E40094008C0004000400040004000432
:1016A000000000000000000000000000000000003A
:1016B000007C00020002000C003000400042003EAE
:1016C000000000000000000000000000000800080A
:1016D00000FE00080008000800080008000800F0EC
:1016E00000000000000000000000000000000000FA
:1016F0000042004200420042004200420062005CA0
:1017000000000000000000000000000000000000D9
:1017100000010182008200420044002400280018D9
:1017200000000000000000000000000000000000B9
:101730000001021102320132014A014A01CC008447
:101740000000000000000000000000000000000099
:10175000000201840048003000300048008400028C
:101760000100000000000000000000000000000078
:101770000001020201020184004C004800300030E8
:10178000001000080007000000000000000000003A
:1017900000FE01800040002000100008000400FE50
:1017A000010000000000000000E000100010001028
:1017B000001000100010000C0010001000100010AD
:1017C000001000E0000000000010001000100010E9
:1017D0000010001000100010001000100010001089
:1017E0000010001000000000001C0020002000205D
:1017F00000200020002000C0002000200020002049
:101800000020001C0000000000000000000000009C
:1018100000000000000E023102C1010000000000C3
:10182000000000000000000011241FBECFEFD8E030
:10183000DEBFCDBF11E0A0E0B1E0ECEAF2E702C00C
:1018400005900D92A630B107D9F721E0A6E0B1E0EE
:1018500001C01D92A43FB207E1F70E946A360C94C2
:1018600054390C9400009091AD01981303C08091FD
:10187000B00108959091AE01891303C08091B10128
:1018800008958091B201089580E00E94721E81E067
:101890000E94721E82E00E94721E8DE30E946435D7
:1018A00080E00E948E1E81E00E948E1E82E00E94D7
:1018B0008E1E0895A3E0B0E0E0E6FCE00C94CF3883
:1018C000A0902C01B0902D0189836A834B83CE01B7
:1018D00001966C0180E0E82E81E0F82E10E0F60120
:1018E00001916F010023A9F0812F0E94721E0E94B6
:1018F000B31EF7018081918190932D0180932C017B
:10190000802F0E946435B0922D01A0922C010E947C
:10191000AB1E1F5FF2E0EF0EF11C133001F72396B0
:10192000EAE00C94EB3884E592E00E94631E8DE4BB
:1019300092E00E94BC1E8091AB018F5F8093AB014F
:101940000895809107018130C9F484EF91E00E94ED
:10195000631E0E94411E80910C010E94721E0E9413
:10196000B31E0E94AB1E60910D0170910E0180E0CC
:1019700090E026E54DEF0E94E41E0895823011F4B8
:101980000E94930C0895CF93DF93C62FD42F442346
:1019900019F00E948E1E02C00E94721E82EC90E01E
:1019A0000E94631E8C2FDD2319F00E948E1E02C040
:1019B0000E94721E0E94AB1E60911401709115016D
:1019C000809116019091170124E0409113010E942B
:1019D000E41EDF91CF910895A0E0B0E0E2EFFCE0DB
:1019E0000C94D13880910A01813039F4F0901101C2
:1019F00000E010E0C1E1D1E05BC0833009F04CC0F1
:101A000000911401109115012091160130911701D8
:101A100060911B0170911C0180911D0190911E012C
:101A2000E090130140911A010E94B912813029F40B
:101A300028E1C22E21E0D22E04C091E1C92E91E00E
:101A4000D92EF6010381148125813681609122010E
:101A5000709123018091240190912501E2804091B1
:101A600021010E94B912813021F48FE1C82E81E05A
:101A7000D82EF1E1CF16F1E0DF0619F4C8E1D1E08C
:101A800002C0C1E1D1E08E01095F1F4FC016D1062F
:101A900039F4095F1F4F04C008E111E0C1E1D1E052
:101AA0008881F801F0808F1519F0F1808F11F9808D
:101AB0008881F81201C089810E94721E82EC90E038
:101AC0000E94631E8F2D0E94721E0115110561F088
:101AD00082EC90E00E94631EF8018081F81202C03F
:101AE000F80181810E94721E0E94411E6B817C81DF
:101AF0008D819E8124E04A810E94E41E011511051A
:101B000051F00E94AB1EF80163817481858196813A
:101B100024E0428112C0CE010E949F30813079F4CE
:101B20000E94AB1E6091E6017091E7018091E8018F
:101B30009091E90128E44091E5010E94E41ECDB7AF
:101B4000DEB7E8E00C94ED38EF920F931F93CF933C
:101B5000DF93009150011091510120915201309179
:101B6000530160915F0170916001809161019091DA
:101B70006201E0904F0140915E010E94B9128130F4
:101B800019F4CCE5D1E002C0CDE4D1E00B811C8199
:101B90002D813E8160916E0170916F018091700185
:101BA00090917101EA8040916D010E94B9128130DB
:101BB00011F4CBE6D1E088810E94721E8FEC90E098
:101BC0000E94631E89810E94721E0E94411E6B81C9
:101BD0007C818D819E8126E44A810E94E41ECE0193
:101BE0000E948B238C010F3F8FEF180749F00E9452
:101BF000AB1EB80180E090E024E04EEF0E94E41EAE
:101C00008B859C85AD85BE85892B8A2B8B2B61F0BE
:101C100084EF90E00E94C71E6B857C858D859E8534
:101C200021E448EF0E94E41EDF91CF911F910F91B4
:101C3000EF900895EF920F931F93CF93DF93EC01F2
:101C40006091BE017091BF018091C0019091C1016E
:101C500027EFE22E02E310E020E030E04091C201E5
:101C60000E94B91287FD10C0CE010E94C71E60916C
:101C7000BE017091BF018091C0019091C10121E42A
:101C80004091C2010E94E41EDF91CF911F910F91FC
:101C9000EF90089540E0FC01608181810E945C2703
:101CA000EDE4F1E0638174818581968126E44281CF
:101CB0000E94E41E0895CF93C62F0E948E1E81E0DD
:101CC0000E9464358C2F0E948E1ECF910895A0E053
:101CD000B0E0EDE6FEE00C94D03880910B0181304D
:101CE00051F4E0907B01E5E0CE2EF5E0FF2E85E09B
:101CF00000E010E02FC18230F1F4F0907A01C09042
:101D00008001D0907B01E0908101FC1006C0CE2CB8
:101D100075E0E72EBB24B3945AC0DE1409F417C152
:101D2000FE100FC1CD100DC1EF2C35E0C32E45E0E4
:101D3000D42EB12C4CC0833009F03FC080E066E067
:101D4000282F30E090E0629FF001639FF00D112496
:101D5000E558FE4F492F50E0981769F0649FD00175
:101D6000659FB00D1124A658BE4FC0817C91C7134A
:101D700002C095E085E09F5F933060F38F5F833012
:101D8000F8F2853048F086E0849F8001859F100D31
:101D9000112406581E4F02C000E010E086E0829F2A
:101DA000E001839FD00D1124C658DE4FE98055E035
:101DB000C52E65E0F62E83E0CFC08BEC90E00E944C
:101DC000B71E80910B01805D0E946435DFC082E008
:101DD0008F1590F080917B010E94721E87EC90E03D
:101DE0000E94631E8F2D0E94721ECAE7D1E000E898
:101DF00011E0EF1018C01CC000E811E0CAE7D1E004
:101E000088810E94721E8BEC90E00E94631E8E2DD2
:101E10000E94721E0115110509F4A3C0FE1441F0C1
:101E2000F3E0FF1528F0F801E1808BEC90E004C0AE
:101E3000F801E08087EC90E00E94631E8E2D0E94E6
:101E4000721EF4E0FD1508F457C049E16C2D8D2D8C
:101E50000E9448238130B9F40E94AB1E82E08F15A6
:101E600018F08DE591E002C081E691E00E94631ECA
:101E70008FE30E9464350E94411E40E06C2D8D2D41
:101E80000E94C30CB12C88E491E00E94C71E6A81B5
:101E90007B8180E090E026E54DEF0E94E41E0E94E9
:101EA000AB1E01151105B1F58C819D818A3F91050D
:101EB00070F488E20E9464356C817D8180E090E05E
:101EC00020E040E00E94E41E89E20E94643540E088
:101ED000688189810E94521B81E00E9436288EE32E
:101EE00091E00E941A0EE1E0BE1250C086E491E03B
:101EF0000E94C71ECE0148C088E491E00E94C71E20
:101F00006A817B8180E090E026E54DEF0E94E41E2F
:101F10000E94AB1EF8016281738180E090E026E5AB
:101F20004DEF0E94E41EF1E0BF1230C086E491E064
:101F30000E94C71ECE010E944A0E0E94AB1EC8011D
:101F400023C085E0C82E95E0F92E25E0E22E85E03D
:101F500000E811E0CAE7D1E0DF2CF82EBB24B394EF
:101F60004FCF84E08D1508F070CF88E491E00E9497
:101F7000C71E6A817B8180E090E026E54DEF0E94DC
:101F8000E41E0E94AB1E90CF0E944A0ECDB7DEB772
:101F9000E9E00C94EC388F929F92AF92BF92EF924F
:101FA000FF920F931F93CF93DF938091070190913E
:101FB000AD01C091AF01D091AE0180FF09C0192FD2
:101FC0000D2F7801DC2F91E6A92E91E0B92E08C0E3
:101FD0001C2FC92F7E01012F8DE5A82E81E0B82E80
:101FE0008BED91E00E94B71EC5010E94631E809197
:101FF000070182FF03C08BE20E9464350E94411EEC
:102000000E94440C602F8D2F0E949928892B31F05B
:102010000E94AB1E602F8D2F0E945B0E49E1612F45
:102020008C2F0E944823813061F40E94411E41E0C0
:102030006091AF018091AD010E94C30C84E0809358
:102040002E0189E591E00E94C71E6091BA0170914E
:10205000BB018091BC019091BD0120E040E00E9455
:10206000E41E0E94AB1E8091B30180FF02C085E692
:1020700003C081FF03C083E60E9464356C2F812F6B
:102080000E9499288C01892BA1F185E591E00E949D
:10209000C71EF801C281D381248135818090BA01A5
:1020A0009090BB01A090BC01B090BD01F4E68F16EA
:1020B0009104A104B10498F0CE01821B930B63E05C
:1020C00070E00E944B388AEF88169104A104B10495
:1020D00018F4C61BD70B03C0EB01C20FD31FCE01F0
:1020E000A0E0B0E026E54DEFBC01CD010E94E41E6A
:1020F00002C0C0E0D0E08BE491E00E941A0EC53F20
:10210000D140E0F06E2D8F2D0E949928EC01892B93
:10211000A9F08A819B81823C914080F40E94411EFB
:102120006E2D8F2D0E945B0E0E94AB1E6A817B81FB
:1021300080E090E026E54DEF0E94E41EDF91CF9114
:102140001F910F91FF90EF90BF90AF909F908F9055
:1021500008950F931F93CF93DF9390910701809180
:10216000AF01C091AE0190FF02C0D82F02C0DC2F9A
:10217000C82F6C2F8D2F0E9499288C01892B31F04C
:102180000E94AB1E6C2F8D2F0E945B0E8091070169
:1021900083FD52C08091B6019091B701892B81F0E7
:1021A00082E491E00E94C71E6091B6017091B70170
:1021B000072E000C880B990B26E54DEF0E946C1F33
:1021C00085E691E00E94C71E6091C3017091C40131
:1021D0008091C5019091C60126E44091C7010E94FB
:1021E000E41E8091B4019091B501892B71F080EFCC
:1021F00090E00E94C71E6091B4017091B50180E02B
:1022000090E024E04EEF0E94E41E01151105A1F0BC
:102210000E94411E81E00E9464350E94AB1E88E44A
:1022200091E00E94B71EF8016281738180E090E026
:1022300026E54DEF0E94E41EDF91CF911F910F9193
:1022400008950E94AB1E8091070180FF02C08EE4BA
:1022500001C080E50E94643588E791E00E94631E1A
:1022600008950E94AB1E8091070182FF03C083E79F
:1022700091E002C08EE691E00E94631E0895809175
:10228000070184FF05C080E891E00E94631E03C03F
:102290008AE40E9464358CE791E00E94631E0E94EC
:1022A00021118091070184FD0E9431110E94411E7D
:1022B0000E94440C8091070184FD0E94A910809126
:1022C000070183FF1EC088EF90E00E941A0E8091E4
:1022D000B8019091B901892BA1F086EE90E00E949F
:1022E000C71E0E94411E0E94AB1E6091B8017091F2
:1022F000B901072E000C880B990B26E54DEF0E94C3
:102300006C1F089589E691E00E94631E0E942111CE
:102310000E9431110E94411E0E94440C0E94A9108B
:10232000089580910601823219F487ED91E002C090
:1023300081ED91E00E94631E0E94411E0E94440CA8
:102340008091B4019091B501892B71F080E591E005
:102350000E94C71E6091B4017091B50180E090E0C9
:1023600026E54DEF0E94E41E0895CF93DF938DEC98
:1023700091E00E94631E0E94411E0E94440C8BE368
:1023800091E00E94C71ECAE3D1E06D817E8180E0AA
:1023900090E026E54DEF0E94E41E88E491E00E9463
:1023A000C71E6B817C8180E090E026E54DEF0E94A6
:1023B000E41EDF91CF9108958BE891E00E94631EA7
:1023C0000E94411E0E94440C83ED90E00E94C71EB3
:1023D000E1E1F1E0638174818581968124E04281AD
:1023E0000E94E41E0895CF93DF938EE00E94DF1ACF
:1023F000CEE9D1E09F838E8388EC8B838EE00E94B0
:10240000DF1A2091E101820F911D27FD9A959F838C
:102410008E8389E18B83DF91CF9108950E940B35E4
:102420008FEF97E090932D0180932C0188EC91E041
:102430000E94631EF8940FB6F894A89580916000EE
:10244000886180936000109260000FBE5E9883B731
:10245000817F846083BF83B7816083BF889583B7A2
:102460008E7F83BF089581EC91E00E94B71E80911A
:10247000A8019091A9016AE070E00E94373880E0DD
:1024800090E026E54EEF0E94E41E0E94AB1E809174
:10249000A8019091A901811529E1920748F480E0F3
:1024A00098EF90932D0180932C0185EB91E014C05F
:1024B000883E9C4148F480EE9FEF90932D018093DD
:1024C0002C0189EB91E008C080EE97E090932D01FC
:1024D00080932C018EEB91E00E94631E80EE97E0CA
:1024E00090932D0180932C01089585E00E94DF1ABE
:1024F0009C01AEEBBFE00E94A63828EE33E040E03E
:1025000050E00E945F382E5D3E4F3093A90120932A
:10251000A80184E68093AA012115394150F40E9454
:102520000B350E94331288EB9BE00E945D160E94DF
:102530000E120895CF92DF92EF92FF92CF93C1E0F7
:102540002AE0C22ED12CE12CF12C6A3071058105D4
:10255000910540F0A70196010E945F38CA01B901B8
:10256000CF5FF3CF8C2FCF91FF90EF90DF90CF9084
:102570000895A0E0B0E0EFEBF2E10C94C8384B0115
:102580005C01342E280139011E2D9B01AC01D1E0E4
:102590009AE0C92ED12CE12CF12C2A3031054105CD
:1025A000510540F0CA01B901A70196010E945F38A8
:1025B000DF5FF3CFA3019201C1E08AE0C82ED12CE6
:1025C000E12CF12C2A3031054105510540F0CA01BA
:1025D000B901A70196010E945F38CF5FF3CF811444
:1025E0009104A104B10459F141145104610471042E
:1025F00009F1432D4D0FE12EEC0EE4164CF14E1176
:1026000029C0ED2FCD1754F4AAE0B0E0A301920148
:102610000E94BC382B013C01CF5FF4CFEC1754F47F
:10262000AAE0B0E0A50194010E94BC384B015C0116
:10263000EF5FF4CF481459046A047B0448F081E04A
:1026400084149504A604B70408F080E0819503C0C3
:1026500081E001C08FEFCDB7DEB7E1E10C94E43843
:10266000CF92DF92EF92FF92CF93DF93C42FD22FBE
:102670002AE0C22ED12CE12CF12CCD1791F0CD17F0
:1026800044F4A70196010E945F38CA01B901CF5FE7
:10269000F4CFAAE0B0E09B01AC010E94BC38C1506D
:1026A000ECCFDF91CF91FF90EF90DF90CF90089526
:1026B000CF93CAB18AB1837F8AB90E94593699B142
:1026C00093FF02C082E001C080E092FD8160CAB940
:1026D00090913701913031F4809336011092370197
:1026E00010923901909139012FEF290F293F18F4E9
:1026F0009F5F90933901909136018093360189173D
:1027000071F1282F292720FF2695213029F5990FCF
:1027100022E730E002C0359527959A95E2F72370BD
:10272000821711F085E001C084E0909138019F5F2D
:102730009093380190913701891729F091E0909397
:10274000380190933901809337019091380194308A
:1027500030F01092380104C081E08093370180E0AE
:10276000CF910895A0E0B0E0E8EBF3E10C94CC3811
:102770007C01162F81E080933701109238018093FD
:10278000340162FF08C080919E0180FD02C01C7F61
:1027900002C0E12CF12C212F2370B22E19F081E020
:1027A0000E94D63532E0A32ED12C42E3C42EC0E0E5
:1027B000D1E000E058E2952E812F8270882E212FE3
:1027C0002071722E1870E114F10449F083E0E816CC
:1027D000F10420F022E0E21AF10801C0D0E04F99A4
:1027E00035C08EE190E00E945D16C0E0DD2311F05F
:1027F0004F9B04C0CB3108F085C008C0CF5FCB3100
:10280000C8F78AE090E00E945D16F0CF112309F42A
:102810007CC082E390E00E945D16C4E101E04F9924
:102820000CC08EE190E00E945D164F9906C088ECC6
:1028300090E00E945D16C1E003E0C1508AE090E0A4
:102840000E945D16C111EBCFD0E063C00E94581307
:10285000882351F1DD2019F0801711F066C0082F90
:10286000D394809139016D2D0E941D389CE09C0D00
:10287000C92EC80E28E1829FC001112424E096953C
:1028800087952A95E1F7893208F088E28695869542
:102890008695833010F493E0A92EAD1005C097E023
:1028A000981B9093340141C0DD2021F080913901C3
:1028B0008C15D8F582E090E00E945D16CF5F8C2FDA
:1028C000692D0E941D3891110BC08091AA018230A0
:1028D00020F081508093AA0103C071100E947512EC
:1028E000C83CB9F48820A1F0D13031F480E00E94D6
:1028F000D635C0E0D2E00DC081E00E94D635C0E000
:10290000D1E007C0D0E002E004C0D0E001E001C0A7
:10291000C0E080919F0180FF06C080919F018E7F63
:1029200080939F0102C0D1114ECFBB2019F080E0EF
:102930000E94D63500933301802FCDB7DEB7EDE08E
:102940000C94E83865E188EB9BE00E94B21308958F
:102950000F931F93CF93DF93D82F882321F00CE0A0
:1029600012E0C3E003C003E112E0C0E00E94F91BE3
:10297000C817F9F00E940B35C8010E94631E0E941F
:10298000411E8DEF91E00E94631E0E94F91BC81347
:1029900005C088EC90E00E945D160BC060E184E603
:1029A00090E00E94B213D13081F7882371F380E068
:1029B00001C081E0DF91CF911F910F9108956813BD
:1029C00010C080EE9FEF90932D0180932C018AE23E
:1029D0000E94643580EE97E090932D0180932C0146
:1029E00008950E94AB1E0895A0E0B0E0EAEFF4E184
:1029F0000C94CA38762E642E552E59010FEF080F0D
:102A000090902A01DD24DA94D90C0E94B31E12E0C2
:102A1000D0E0C0E09A949A9481E0882E8D1881E0ED
:102A2000D81202C01F5FDC2FE62CF52CED0EF11C36
:102A3000ED0EF11CC12CCD1498F562E06C0D81E017
:102A40000E947934E1E0DE1629F06C2F8D2F8C0D79
:102A50000E94DF141130E1F0F1E07F1206C0F701AF
:102A6000808191810E94631E0AC0C7010E94303993
:102A7000BC0180E090E020E040E00E94E41EA11450
:102A8000B10419F0C5010E94631E80E00E94A434C5
:102A9000F2E0EF0EF11CC3940C1568F6CD2CCBCFF1
:102AA00081E0D81209C060912A01809129010E9419
:102AB00079348CE30E94643560E180E090E00E940C
:102AC000B213813071F18430B1F0853089F4C111D5
:102AD00006C00D1518F1D82DD00FC02F07C0C1505A
:102AE000DC131DC0CD2FDD23D1F0D15012E097CFE4
:102AF0008230A9F416C00C1304C00D1558F012E072
:102B00000AC0CF5F892D8D0FC81309C0C01738F4D4
:102B1000DF5FECCF11E0D0E0C0E081CFC02F11E04B
:102B20007ECF0E940B3584EF91E00E945D168C2FC2
:102B3000CDB7DEB7EFE00C94E638A9E0B0E0E3EA09
:102B4000F5E10C94D638182F80E091E09A838983C0
:102B500081E08F838DEF90E09C838B8382E0888778
:102B600088EE91E09E838D8319860E940B3512308A
:102B700019F48BE292E002C086E292E00E94631EAA
:102B800020E030E0AE014F5F5F4F61E083E00E94E4
:102B9000F414FE01E80FF11D6781662319F0812FFF
:102BA0000E94ED162996E3E00C94F238A8E1B0E01B
:102BB000ECEDF5E10C94D7388FEA91E09A838983A4
:102BC00088E0898B8EE991E09C838B838EE08A8BF1
:102BD0008BE392E09E838D8381E08B8B80E392E098
:102BE00098878F8382E08C8B8BE292E09A8789872B
:102BF00083E08D8B86E292E09C878B8784E08E8BCE
:102C00008AE192E09E878D8785E08F8B88EE91E048
:102C1000988B8F87188E0E940B3580E492E00E947B
:102C2000631E20E030E0AE014F5F5F4F61E088E05F
:102C30000E94F414FE01E80FF11D81896896E2E01C
:102C40000C94F338CF930E94D61590E08F30910505
:102C500080F5FC01EC5CFF4F0C94A038C9E622C063
:102C60000E94C31902C00E94A317C82F811118C067
:102C70000E940B358DEE91E00E94631E0E94A2140B
:102C800019C082E001C081E00E949D1512C00E941F
:102C900037170FC00E94D1310CC00E946D3209C09D
:102CA000893641F40E940B3587E492E00E94631E4E
:102CB00001C0C1E08C2FCF9108952091A001A0E028
:102CC000B0E0F4E0880F991FAA1FBB1FFA95D1F757
:102CD0002630D1F4492F5A2F6B2F77274F5F5F4F44
:102CE0006F4F7F4FE4E0440F551F661F771FEA9533
:102CF000D1F7481759076A077B0728F4841B950BFF
:102D0000A60BB70B01C020E01092B1001092B200E8
:102D100032E03093B0003093700033B7317F232B13
:102D200023BF0FB607FC03C0789430E001C031E048
:102D300047E00097A105B105F9F0A8958F3F9105EF
:102D4000A105B10509F010F4282F01C02FEF821B57
:102D50009109A109B10921502093B3004093B1001A
:102D60002091B100222329F323B7216023BF889546
:102D700023B72E7F23BFF4CF311101C0F8940895FB
:102D80001F920F920FB60F9211241092B1000F9064
:102D90000FBE0F901F901895EAEDF1E088EC90E0DF
:102DA000918380838CED90E09383828384E190E033
:102DB000958384838BE2868317821086118608951B
:102DC000EAEDF1E080E09191890F91E0E43EF907AE
:102DD000D1F7811101C081E00895EF92FF920F9326
:102DE0001F93CF93DF93E82E623019F0C0E9D2E051
:102DF00002C0C5E8D2E00E94E0168093E4018BE0B7
:102E0000F82E0AED11E082E0E81206C0F8016081B8
:102E1000CE010E94363905C0CE010E942839F80142
:102E200080830F5F1F4F2196FA94F110ECCFF2E0F0
:102E3000EF16C1F00E94E0169091E401992391F001
:102E4000891781F00E940B358FED91E00E94631E7F
:102E50008DEE91E00E94BC1E80ED97E00E945D1611
:102E60000E94CC16CDB7DEB7E6E00C94EF380F9396
:102E70001F93CF93DF9381E0809326010E940B354F
:102E80008AE291E00E94B71ECAEDD1E068817981A3
:102E900080E090E024E04FEF0E94E41E86E291E0A3
:102EA0000E94C71E6A817B8180E090E024E04FEFA2
:102EB0000E94E41E80E191E00E94C71E6E8170E0D6
:102EC00080E090E026E444EF0E94E41E8DE091E073
:102ED0000E94C71E6C817D8180E090E024E04EEF6F
:102EE0000E94E41E86E391E00E94C71E0EE911E0F5
:102EF000F8016681778180E090E026E54DEF0E9441
:102F0000E41E89E091E00E94C71EF801608571858A
:102F100080E090E026E54DEF0E94E41E83E091E022
:102F20000E94C71E6885062E000C770B880B990B34
:102F300026E54DEF0E946C1F0E94A214DF91CF91F5
:102F40001F910F910895A5E0B0E0E9EAF7E10C9434
:102F5000C73881E00E94A814612C712C1B82A12C1F
:102F6000B12C1A82C12CD12C412C882309F483C1A5
:102F7000812C912C212CE12CF12C00E010E01D8201
:102F80001C8262E0562E3324339421E029830E9470
:102F90000B3581E40E94643580E3850D0E94643521
:102FA0000E94AB1E34E0531609F451C0351568F089
:102FB00082E0581699F093E0591208C180E00E940F
:102FC000A81480E094E6998302C125E0521609F422
:102FD00067C036E0531609F4A2C0F8C08DE091E056
:102FE0000E94B71E83E191E00E94631E40E060E012
:102FF00081E00E94521B80E00E940F209D838C8301
:103000008639910518F4C80ED91E439440E060E05B
:1030100082E00E94521B80E00E940F208C018639C2
:10302000910518F4C80ED91E439440E061E082E097
:103030000E94521B80E00E940F207C0186E9E81666
:10304000F10408F0C3C0CE0CDF1C4394BFC08AE279
:1030500091E00E94631E18B837B835B834B880E0E4
:103060000E94401B9D838C8322E027B955B854B839
:1030700081E00E94401B8C018C819D81800F911FFB
:10308000A80EB91E57B830E135B934B982E00E94B4
:10309000401B7C01A80EB91E8A818D5F8A8396C071
:1030A00086E291E00E94631E15B838B837B834B88C
:1030B0002091A6013091A7013D832C8380E00E94DE
:1030C000401B2C813D81281B390B3D832C8332E032
:1030D00038B937B984E084B90091A6011091A701ED
:1030E00081E00E94401B081B190B8C819D81800F81
:1030F000911F680E791E94E098B997B920E124B920
:10310000E090A601F090A70182E00E94401BE81A1F
:10311000F90A6E0C7F1C3B813D5F3B8357C080E109
:1031200091E00E94B71E83E191E00E94631E40E09F
:1031300060E081E00E945C2780914F01843F91F420
:103140008091540190915501A0915601B091570181
:1031500085369105A105B10528F49D838C83880EE1
:10316000991E239441E060E082E00E945C278091F8
:103170005E01843F89F48091630190916401A09184
:103180006501B091660185369105A105B10520F470
:103190008C01880E991E239442E061E082E00E9437
:1031A0005C2780916D01843F89F480917201909138
:1031B0007301A0917401B091750185369105A10547
:1031C000B10520F47C01880E991E239481E017B884
:1031D00018B814B815B8882319F10E94411E2C8123
:1031E0003D81C901A0E0B0E020E040E0BC01CD019C
:1031F0000E94E41E0E94AB1EC801A0E0B0E020E0E7
:1032000040E0BC01CD010E94E41E0E94AB1EC7013C
:10321000A0E0B0E020E040E0BC01CD010E94E41E4F
:103220003981343681F060E188EE93E00E94B21378
:10323000882349F0823029F454E6552E84E68983A8
:1032400002C094E6998329812F5F2983263008F4F0
:103250009ECE539436E0351508F097CE8FE02812B5
:103260000AC0C4016FE070E00E9437386093E0014B
:1032700091E0998301C019822FE042120CC0C6016F
:103280006FE070E00E9437387093DF016093DE01D9
:1032900039813F5F39833A813F3009F06DC08B81BE
:1032A0008F3009F062C0E5E0F0E0C501BF010E9487
:1032B00037389B01C301BF010E9437388B018091D1
:1032C000A6019091A7016C01CC0CDD1CC80ED91E83
:1032D000C21AD30AC61AD70AE12CF12CD90120EA66
:1032E00039E041E050E00E94BC38A70196010E94FD
:1032F0005F38CA01B9016B5F7F4F8F4F9F4F2AE044
:1033000030E040E050E00E945F382A3F310541053F
:10331000510538F43093DB012093DA0199819F5FE6
:103320009983D80120EA39E041E050E00E94BC389E
:10333000A70196010E945F38CA01B9016B5F7F4FF8
:103340008F4F9F4F2AE030E040E050E00E945F380E
:10335000283181E038074105510538F43093DD010B
:103360002093DC0199819F5F99830E94371781E048
:103370002981243019F403C00E94371780E0259674
:10338000E2E10C94E338A0E0B0E0E9ECF9E10C9460
:10339000C73881E00E94A814882309F40AC1C12C0F
:1033A000D12CE12CF12C00E010E0C1E092E0292EBC
:1033B00028E0322E34EF432E36E0532E612C712C50
:1033C000D1E00E940B3584E50E94643580E38C0FC8
:1033D0000E9464350E94AB1EC33009F46BC0C8F56F
:1033E000C13009F451C0C23009F0A8C081E291E0B7
:1033F0000E94B71E83E191E00E94631E2091A60106
:103400003091A701A0E7B3E00E94A638A301920182
:103410000E94813849015A0181E085B985E084B96B
:1034200082E00E94491B6C01C818D90881E184B967
:1034300081E00E94491B7C01E818F90884E085B905
:1034400084E184B980E00E94491B8C0108191909A4
:1034500075C0C53009F45DC008F455C0C63009F028
:103460006DC08EE291E00E94631E25B824B880E012
:103470000E94491B8C0135B834B881E00E94491B79
:103480007C0180E285B955C08EE00E94DF1A8EE093
:103490000E94DF1A5C0186E391E00E94631E0E9495
:1034A000411EB50180E090E026E54DEF0E94E41E4C
:1034B00080E045C08CE191E00E94B71E83E191E07D
:1034C0000E94631E0091A6011091A7011695079511
:1034D00025B88AE084B982E00E94491B6C01C01AB9
:1034E000D10A82E284B981E00E94491B7C01E01A82
:1034F000F10A35B888E284B980E00E94491B801B3C
:10350000910B8C011BC080E00E94A81480E0D4E6DF
:1035100016C082E391E00E94631E15B824B880E0D3
:103520000E94491B8C0134B881E00E94491B7C0138
:1035300080E284B982E00E94491B6C0181E014B8EA
:1035400015B8882309F10E94411E20E040E0B8012F
:10355000012E000C880B990B0E946C1F0E94AB1E61
:1035600020E040E0B7010F2C000C880B990B0E9463
:103570006C1F0E94AB1E20E040E0B6010D2C000C39
:10358000880B990B0E946C1FD43659F060E188EECD
:1035900093E00E94B213882321F0823009F4C4E63C
:1035A000D4E6DF5FD63008F40CCFCF5FC73008F425
:1035B00007CF81E0CDB7DEB7E2E10C94E338CF93DB
:1035C000DF938F70C82FC064C0937C00DC2FD07C49
:1035D0008091A301D81721F00E945D36D093A301FA
:1035E00080917A00806480937A0080917A0086FDD1
:1035F000FCCF20E030E0A90180E0E091A1018E172E
:1036000008F590917A00906490937A0090917A00F6
:1036100096FDFCCF6091780070917900260F371FDE
:10362000411D511D843061F4211594E0390740F4A7
:10363000D03C31F09091A201913011F4C06CC4CF14
:103640008F5FDBCFD03C29F4A091A401B091A501FC
:1036500004C0A091A601B091A7010E94BC382AE045
:1036600096958795779567952A95D1F72E2F30E017
:1036700040E050E00E945F38C901DF91CF9108958A
:10368000CF93C82F0E9454368C2F0E94DF1ACF91FF
:103690000895CF93C82F0E9452368C2F0E94DF1AB4
:1036A000CF910895A0E0B0E0E8E5FBE10C94D138BB
:1036B000E62E042FC8ECD1E0888369834A83C82EA4
:1036C000D12CC601875F9F4F0E9428398E83F12C31
:1036D000C701875F9F4F0E9428398F8310E0C80180
:1036E000875F9F4F0E9428398887C6018A5F9F4F56
:1036F0000E9428398987C7018A5F9F4F0E94283915
:103700008A87C8018A5F9F4F0E9428398B87C6012C
:103710008D5F9F4F0E9428398C87C7018D5F9F4F17
:103720000E9428398D87C8018D5F9F4F0E942839DC
:103730008E87C601805090400E9428398F87C7012C
:10374000805090400E942839888BC801805090405A
:103750000E942839898BCDB7DEB7E8E00C94ED38AC
:10376000E8ECF1E04581648183810E94521B089559
:10377000E8ECF1E080818383818184838281858389
:10378000089593E0981B892F861B0895CF93DF93AC
:1037900040E00E94521B17B89091CE0195B98091DC
:1037A000CF01892B84B98091D7010E94401BEC0185
:1037B0008091D8010E94DF1AAC012091A6013091BE
:1037C000A70136952795C9014E978C179D0760F480
:1037D000225E3F4FC217D30738F48417950720F4B1
:1037E00081E04217530708F080E014B8DF91CF91D1
:1037F0000895CF9361E080E00E94C61BC82F62E06D
:1038000080E00E94C61BC80F62E081E00E94C61BD8
:103810008C0FCF9108950F931F93CF93DF93D82FE1
:10382000C62F17B818B814B815B840E00E94521B3C
:103830008091D40187B98091D8010E94DF1A8C0150
:103840008091D50187B98091D7010E94DF1A0817AE
:10385000190728F440E06D2F8C2F0E94521B809195
:10386000D40187B98091CF0184B9C2E38091D80196
:103870000E94DF1A9C01203981E0380738F0C150DE
:1038800069F084E690E00E945D16F0CF87B19091D8
:10389000D501982B97B92832310588F717B814B895
:1038A000DF91CF911F910F910895A6E0B0E0EBE575
:1038B000FCE10C94CE3817B818B815B88FE384B96A
:1038C00080E00E94DF1A9A83898381E00E94DF1AD8
:1038D0009C838B8382E00E94DF1A9E838D83E12C80
:1038E00012E008E2FF24F394AA24A394B12C1F5FF2
:1038F000133009F410E0C12ED12C8E2D90E0012E52
:1039000002C0959587950A94E2F780FDF0CF812F4C
:103910000E94DF1AF601EE0FFF1F21E030E02C0FAE
:103920003D1FE20FF31F208131818217930768F456
:1039300091838083202F30E02F1931092431310504
:1039400064F40B3E50F40C5E08C08A30910518F404
:10395000083209F400E5F39402C0FF24F3948330A5
:10396000910540F4C5010C2C01C0880F0A94EAF7B8
:10397000E82A0BC08032934040F497B0C6018D5FB7
:103980009F4F0E942839892987B987E0E81681F17D
:103990000F1540F581E08093060180930701109395
:1039A0000C01C6018D5F9F4F0E94283997B1809509
:1039B000982397B9C6018A5F9F4F0E942839082F24
:1039C000C601875F9F4F0E94283994B1802B809554
:1039D000892384B9812F0E94DF1A90930E0180936E
:1039E0000D0106C0A89582E390E00E945D167FCF8E
:1039F00014B817B82696EBE00C94EA38CF93C82F8A
:103A0000C09595B160FF02C0982B01C09C2395B969
:103A100094B1892B84B963FF03C00E94583602C059
:103A20000E94533684B18C2384B985B1C823C5B9AB
:103A3000CF910895A0E0B0E0E0E2FDE10C94D2382F
:103A4000613039F0623071F06330A9F080E090E0CD
:103A50004DC0CCE4D0E0E7E0F0E002E310E028EE77
:103A600033E011C0CEE5D0E0ECE2F0E009E110E097
:103A70002CE231E008C0CCE0D0E0EEE1F0E009E17A
:103A800010E028EC30E08217930768F1821B930B5B
:103A9000B8010E943738D02ED81ACB019927E817E1
:103AA000F90708F46E2FC60FD11DC60FD11DCE0128
:103AB0000E9430397C01CE0102960E943039FC010F
:103AC000E81AF90ADE9C9001DF9C300D1124C80130
:103AD00096958795820F931FB8010E943738CF01C2
:103AE000860F971F03C0D02E60E0DDCFCDB7DEB7C5
:103AF000E7E00C94EE380F931F93CF93DF939091F0
:103B00000601913009F497C0062F182FA8950E943E
:103B1000521B15B88091CF0184B98091D40187B927
:103B200088B960E18091D0010E94FE1C8091D8018B
:103B30000E94401BEC01813D934050F061E1809177
:103B4000D0010E94FE1C8091D8010E94401BEC0114
:103B5000C031D10528F480910801811128C00DC021
:103B600080910801811103C0CE010E94A02CC13DAB
:103B700083E0D80708F043C0EECF8091CF0184B92D
:103B800015B88091D40187B988B90E9454369091B4
:103B9000CF018091D001892B84B9802F0E94401BD6
:103BA0008F359D4020F0BE0182E00E94E92A80917D
:103BB000080181112CC08091D50187B918B8909166
:103BC000CE018091D001892B84B985B9812F0E94C3
:103BD000401B8034964060F40E94452E811108C03D
:103BE00080910601813221F0BE0181E00E94E92A24
:103BF0008091080181110BC00E94372F08C080916D
:103C00000801811102C00E94E62E0E94AC2880911A
:103C10000601882311F08A3019F40E94DB2007C0C6
:103C20008F3129F48091070184FD0E94AB2917B8D8
:103C300018B814B815B8DF91CF911F910F9108955E
:103C4000809109018823E1F09091080190FD18C04E
:103C500091FD04C0909106019E3190F4809306017D
:103C600080913A018093AD0180913B018093AE0138
:103C700080913C018093AF018091100180930F01EE
:103C80000895CF936091280180912A01681315C08F
:103C9000C0912601C0FD0E94A214C1FF0BC0C091BB
:103CA0002A01C23028F08C2F0E94A434C150F9CFD1
:103CB00062E004C00E940B3504C06F5F81E00E9487
:103CC0007934CF910895CF93DF93EC01CE010E9418
:103CD0002839882321F00E9464352196F7CFDF919F
:103CE000CF9108950F931F93CF93DF93C6E2D1E056
:103CF0000E811F81E82FF0E0EE0FFF1FE050FF4F15
:103D0000208131813F832E838F5C0E9464351F8325
:103D10000E83DF91CF911F910F9108950F931F9301
:103D2000CF93DF93C6E2D1E00E811F81E82FF0E050
:103D3000EE0FFF1FE050FF4F208131813F832E8324
:103D40000E94330C0E9464351F830E83DF91CF9154
:103D50001F910F91089580E20E94643508958DE2CD
:103D60000E94643508958AE30E94643508950E9494
:103D7000631E0E94AB1E0895CF93DF93EC010E9457
:103D8000411ECE010E94631EDF91CF910895CF9313
:103D9000DF93EC010E94411ECE010E94631E0E942F
:103DA000AB1EDF91CF91089582E00E94A43462E0BF
:103DB00081E00E947934089583E00E94A43463E096
:103DC00081E00E9479340895A0E0B0E0EAEEFEE1DF
:103DD0000C94CD386B017C01C42F122F9AE0892EF0
:103DE000912CA12CB12C80E1C81687E2D806E10401
:103DF000F10470F0C701B6016B5F7F4F8F4F9F4F8B
:103E0000A50194010E945F3869017A01CF5FEBCF71
:103E1000C13FACF08FE08C0F23E0622F0E94293865
:103E2000D92F992319F08F5F291BD22F883040F4A6
:103E300090E086549F4F0E942839082F02C0D0E09E
:103E400000E04AE061E471E0C6010E94FE38E1E46E
:103E5000F1E001900020E9F73197E154F140BE2EE6
:103E6000CE2FCD1B1C165CF080E30E9464358EE2E1
:103E70000E946435CC2319F080E30E946435D1118F
:103E800001C0CFEFC15081E4C82E81E0D82EE12CD3
:103E9000F12C0C2E000CDD0BEB1478F4F601819163
:103EA0006F010E946435CE15DF0519F48EE20E9481
:103EB0006435FFEFEF1AFF0AEFCF002319F0802FD0
:103EC0000E946435112319F0812F0E946435CDB70B
:103ED000DEB7ECE00C94E938CF92DF92EF92FF92DC
:103EE000CF93DF936B017C01C42FD22F97FF0AC0C1
:103EF0000E94AF1EF094E094D094C094C11CD11CD9
:103F0000E11CF11C2D2F4C2FC701B6010E94E41EAD
:103F1000DF91CF91FF90EF90DF90CF900895CF93F6
:103F2000C82F80910F01982F990F890FE62FF0E08D
:103F3000E80FF11DEC56FF4FE491EE2329F180913B
:103F40003101815060913201E4FF04C09091300151
:103F50009695690FE1FF04C090912F019F5F890F33
:103F6000E2FF04C0909130019150690F0E947934B2
:103F70008C2F0E94330C883721F48C2F0E948E1EC8
:103F800003C08C2F0E94721ECF910895CF93DF93B0
:103F90002091300130912A0191E0920F3917E0F120
:103FA00090912901903118F0280F231738F03093A1
:103FB00028010E94411E93E082E003C020912F015E
:103FC000921B909331018093320160E08091AD01AA
:103FD0000E948F1F61E08091AE010E948F1F62E0FE
:103FE0008091AF010E948F1FC0912C01D0912D01B3
:103FF00080EE9FEF90932D0180932C016091320110
:10400000809131010E94793480910F010E94E53541
:10401000D0932D01C0932C01DF91CF9108954F9241
:104020005F926F927F928F929F92AF92BF92CF9248
:10403000DF92EF92FF921F93CF93DF93C82F0E94DE
:10404000551C80910601813009F456C018B8809142
:10405000D50187B98091CE0185B984B90E945336C4
:10406000C12CD12C760181E0182F117080FF03C084
:104070008091D70102C08091D801A895806C80936F
:104080007C000E945D3680917A00806480937A0083
:1040900080917A0086FDFCCFD4E6812C912C5401CE
:1040A00080917A00806480937A0080917A0086FD06
:1040B000FCCF8091780090917900880E991EA11C08
:1040C000B11C0E945A36D15059F7A091A401B09169
:1040D000A501A50194010E94BC384B015C018AE056
:1040E000B694A794979487948A95D1F782E0112388
:1040F00031F075016401B8CF80E090E04CC015B894
:104100009091D5018091D401892B87B98C149D049D
:10411000AE04BF04D8F52091A6013091A701A4E612
:10412000B0E00E94A6389B01AC012C193D094E0954
:104130005F090E94BC382B013C01A7019601281998
:1041400039094A095B09A8EEB3E00E94BC386B014B
:104150007C012091DC013091DD012057354E40E09B
:1041600050E0C301B2010E945F38C701B6010E944E
:104170005F38C901C13061F46091DE017091DF01E7
:104180006217730718F4861B970B02C080E090E05B
:1041900020EC2093A301DF91CF911F91FF90EF902E
:1041A000DF90CF90BF90AF909F908F907F906F9057
:1041B0005F904F900895A0E0B0E0E1EEF0E20C9443
:1041C000C738A89518B88091D50187B98091CE01DC
:1041D00084B985B98091D8010E94401B4C0180911F
:1041E000D7010E94DF1AEC0115B88091D10184B982
:1041F0008091D7010E94401B459708F044C28091EE
:10420000D10185B98091D7010E94401B6C0180913A
:10421000D40187B988B915B88091CF0184B980914C
:10422000D7010E94401B2C018091D8010E94DF1A07
:104230003C018091D20184B98091D8010E94401B39
:104240005C01C03321E1D20728F432E6C316D10461
:1042500038F019C24CE6C41643E1D40608F013C284
:1042600059EA6516710408F070C086E2A816B10418
:1042700008F409C2D60120EF3BE247E050E00E947B
:10428000BC38C091A601D091A7019E012C193D090F
:1042900040E050E00E945F3829013A01DE01AA198E
:1042A000BB0920EF3BE247E050E00E94BC388501AB
:1042B00020E030E0A90198010E945F38EEEDCE16B3
:1042C000E3E0DE0680F4D301C201D2E0880F991F3B
:1042D000AA1FBB1FDA95D1F7BC01CD01620F731F76
:1042E000841F951F14C0FEEDAF16F3E0BF06B0F4B7
:1042F000DA01C901C2E0880F991FAA1FBB1FCA9526
:10430000D1F7BC01CD01640D751D861D971D25E0FB
:1043100030E040E050E00E945F380CC0D301C201A1
:10432000820F931FA41FB51F9C01AD0156954795A1
:1043300037952795225A3E4F4F4F5F4FAAE0B0E086
:104340000E94BC384B015C01B3C0C815D90508F404
:1043500083C04614570408F47FC04091A6015091D1
:10436000A701C417D50709F421972091DC013091EA
:10437000DD012057354EDE01A819B9090E94A63883
:104380009A012C1B3D0B40E050E00E945F38490130
:104390005A012091DA013091DB012057354ED201CC
:1043A000A619B7090E94A638830120E030E0A901D0
:1043B00098010E945F38CE3DD34080F4D501C401FE
:1043C000F2E0880F991FAA1FBB1FFA95D1F7BC0115
:1043D000CD01620F731F841F951F1BC0EEED6E167B
:1043E000E3E07E0660F5283FF4E23F07F1E04F0787
:1043F0005105A0F4DA01C901E2E0880F991FAA1F54
:10440000BB1FEA95D1F7BC01CD01680D791D8A1D4E
:104410009B1D25E030E040E050E00CC0A9E0B0E09A
:104420000E94BC38680D791D8A1D9B1D2AE030E072
:1044300040E050E00E945F3849015A0139C0D5017F
:10444000C401820F931FA41FB51F4C015D01B694D8
:10445000A794979487942CC02FE8621622E17206E5
:1044600008F001C181E00E940F202C01612C712C09
:10447000812C912C540120E030E0A901280D391D38
:104480004A1D5B1DAAE0B0E00E94BC3861157105B1
:104490008105910521F464E670E080E090E0461625
:1044A00057066806790658F453014201CEEF08C05A
:1044B00034E683169104A104B10408F4C0C0CFEF20
:1044C00080E0D7E02AE0F22E90910A01891708F0E7
:1044D0009DC0682E712CD69D9001D79D300D112462
:1044E000F901EF5EFE4F6F0120819091C801291301
:1044F00089C021819091C901291384C0E12C02E077
:1045000010E020E030E04C2FC501B4010E94B91248
:104510008F3F09F03FC0F6016381748185819681E8
:1045200002E010E020E030E042810E94B9128F3FAB
:1045300051F5F6014281C41719F055245A9402C06E
:1045400055245394D69DC001D79D900D11249C01F4
:104550002F5E3E4F6901F9016381748185819681E7
:10456000EC2E950184010E94B912F601581206C082
:1045700083809480A580B680C28105C083829482A6
:10458000A582B682C28314012501569447943794BC
:1045900027940AC0C501B40124E130E040E050E0B6
:1045A0000E945F3819012A01D69DC001D79D900D48
:1045B00011249C012F5E3E4F6901F90163817481D2
:1045C00085819681EC2E9501840102191309240935
:1045D000350942810E94B91287FD16C095018401F8
:1045E000020D131D241D351DF60163817481858123
:1045F000968142810E94B912181634F0F092060199
:1046000084E662CF8F5F60CF88EC5ECF8436D9F1CD
:104610009330C8F527E0929FF0011124EF5EFE4F22
:104620008091C90180838091C801818383829482B3
:10463000A582B682C2839F5F90930A0124C081E065
:104640000E940F202C01612C712CA5019401220FD6
:10465000331F441F551F85E088169104A104B1043F
:1046600008F40CCF0FCF81E00E940F202C01612CA9
:10467000712C8AE0882E912CA12CB12C24E130E001
:1046800040E050E0FFCECDB7DEB7E2E10C94E33876
:10469000EF920F931F93CF93C42F10920A0140E023
:1046A0000E94521B0E94DB2080910A018130B1F4EC
:1046B000CC23B1F000911401109115012091160145
:1046C000309117016C2F70E080E090E0E0901301D2
:1046D00043E00E94B91291E0813019F090E001C0EE
:1046E00091E0892FCF911F910F91EF900895813123
:1046F00038F0815115BC92E094BD87BD81E00895EA
:1047000080E0089516BC81E085BDA99BFECF15BC55
:1047100082E085BB0895A4E0B0E0E1E9F3E20C9407
:10472000C738009729F46FEF7FEF7C836B8339C123
:104730009C838B83FC016381748185819681A7EFC3
:10474000EA2E0AE010E020E030E042810E94B91237
:1047500087FDE9CF0E94551C80910601813019F335
:10476000EB81FC81618180810E940B1C40E0EB8128
:10477000FC81618180810E94521B0091D701809150
:10478000D801006C806C8A8315BC82E084BD85E60C
:1047900087BD18B800937C000E945336FFEFF98361
:1047A000812C912C54018394412C512C320143943F
:1047B00080E090E052E3C52ED12C17EDA895C2976A
:1047C00058F48091D50187B98091CE0185B984B91B
:1047D0000E94663614B815B822E3C216D10458F404
:1047E0008091D40187B98091CF0185B984B90E94A5
:1047F000663614B815B88091D40187B98091CE017E
:1048000085B984B900937C0010937A0080917A0076
:1048100086FDFCCF10937A0080917A0086FDFCCF54
:1048200020907800309079006A8160937C0010932A
:104830007A0080917A0086FDFCCF10937A000E9466
:1048400062360E9482238091CF0185B984B90E948B
:10485000663614B880917A0086FDFCCFC09078004F
:10486000D09079008091D50187B98091CF0185B929
:1048700084B97A8170937C0010937A0080917A00D9
:1048800086FDFCCF10937A0080917A0086FDFCCFE4
:10489000E0907800F090790000937C0010937A000B
:1048A00080917A0086FDFCCF10937A000E946236D8
:1048B0000E9482238091CE0185B984B90E94663618
:1048C00014B880917A0086FDFCCF80917800909199
:1048D0007900A70160E070E0420D531D611D711D5C
:1048E000440E551E661E771EAC0160E070E04C0D54
:1048F0005D1D611D711D840E951EA61EB71EE981EA
:10490000E150E983E1115ACF17B815B8481459049A
:104910006A047B04E8F58091DA019091DB012AE0DA
:10492000289FD001299FB00D1124A50194012419BD
:104930003509460957090E94BC38A30192010E941B
:104940005F388091DE019091DF018217930720F498
:10495000B901681B790B19C0EB81FC8163817481FB
:10496000858196812AEFE22E08EE13E020E030E008
:1049700042810E94B91221E030E0181614F420E0C0
:1049800030E066277727621B730B7C836B8304C040
:104990008FEF9FEF9C838B8380EC8093A3010E9419
:1049A000551C8B819C812496E2E10C94E338A0E0B5
:1049B000B0E0EDEDF4E20C94C8386C0101E113E0D5
:1049C0000E94551C80910601813009F413C118B86A
:1049D0008091D50187B915B814B88091D7010E948C
:1049E000DF1A5C01E12CF12C8FEFE81AF80A602F36
:1049F0008091CE010E94FE1C8091D7010E94DF1A97
:104A0000A816B90690F4EC01CA19DB099EE7E9166D
:104A1000F10429F4CB34D10508F0F0C00CC0CC323D
:104A2000E1E0DE0740F481E007C0C0E0D0E0FEE74F
:104A3000EF16F104C1F780E0F4EFEF16F1E0FF06A6
:104A400009F480E0A8958111CFCFCC3281E0D8075E
:104A500008F411E091E0E916F10459F4C531E5E0FC
:104A6000DE0738F0802F807109E009F0A9CF12E04D
:104A7000C3C0133009F0C0C0470180E090E081144A
:104A8000910459F0F1E08F1A91088091D7010E94AA
:104A9000DF1A8A199B09A895F2CF8C179D0748F455
:104AA0004E01881A990A85E68816910420F010E0D4
:104AB00002C0812C912C8091D7010E94DF1A5C01E9
:104AC000902F9071392E19F00E94483602C00E9432
:104AD0004D368091D7010E94DF1A8A159B0518F484
:104AE000A81AB90A02C0A12CB12C133009F084C055
:104AF00062E0CE01880D991D0E941A1D9C01D7010C
:104B00000E94A6382B013C01332031F1AAE0B0E02D
:104B10009B01AC010E94BC382B013C016833E9E8E1
:104B20007E07E1E48E07910508F46FC0C301B2016E
:104B300028EE33E040E050E00E945F3829013A015E
:104B4000A8EEB3E00E94BC38CAEF332089F022E41B
:104B500034E040E050E010C068337948814491056A
:104B600028F7A8EEB3E0A30192010E94BC38C7EF7A
:104B700020E134E040E050E00E945F388091C901BC
:104B8000F60180838091C8018183C2834782508669
:104B90006186728623833483458356838AE0482E58
:104BA000512C612C712C2130F5E33F07FCE04F07BD
:104BB000510540F0CA01B901A30192010E945F387A
:104BC000CF5FF1CFD5010E94BC3828EE33E040E042
:104BD00050E00E945F38CA01B90103FDCF5F28EFA2
:104BE0004C2F0E943013F601638774878587968760
:104BF00083E013C080E011C0812F0FC081E0CC3270
:104C000091E0D90708F41ECF1CCFA8EEB3E09B01BA
:104C1000AC010E94BC38C7EF9ACFCDB7DEB7E1E157
:104C20000C94E438A0E0B0E0E8E1F6E20C94CF3870
:104C3000EC010E94551C80910601813009F471C07D
:104C400015B897E097B918B88091D10184B980E47C
:104C500080937B0084E480BF8091D701806480933F
:104C60007C0090937A000E945C3610928000109233
:104C70008100109285001092840087E286BB8091AB
:104C8000D10185B9809106018F3129F48091D40139
:104C90008095877002C08091D50191E0909381004A
:104CA00087B9E12CF12C86B385FD0CC080FFFBCFCA
:104CB00096BBA8952FEFE21AF20A20E8E2162CE044
:104CC000F20689F71092810090E296BBC0908600B0
:104CD000D090870014B82091840030918500C216CE
:104CE000D30638F480FF05C081E086BB8FEFE81A59
:104CF000F80A87E980937A0080917B008F7B80930C
:104D00007B008091D7010E94DF1A5C0115B8809169
:104D1000D10184B920E8E2162CE0F20620F081E00F
:104D2000C6C080E0C4C0C601A0E0B0E06701E12CCD
:104D3000F12C7601DD24CC24C82AD92AEA2AFB2AC0
:104D400083E0C816D104E104F104C8F082E0C81A77
:104D5000D108E108F10828E3C21629E8D20621E4C7
:104D6000E206F10460F0C701B60128EE33E040E04E
:104D700050E00E945F3869017A0117EF01C014EF1B
:104D80002091E2018091A4019091A50161E0820F40
:104D9000911D27FD9A950E941A1DDC01A70196011D
:104DA0000E94BC3820E436E040E050E00E945F38CA
:104DB000143F89F48091E00190E0A0E0B0E0281772
:104DC00039074A075B0750F069017A01C81AD90A06
:104DD000EA0AFB0A06C069017A0103C0C12CD12C82
:104DE00076018091C90188838091C80189831A83E3
:104DF0002F83388749875A87CB82DC82ED82FE82F7
:104E0000143F49F480EAC81686E8D80681E0E8062F
:104E1000F10460F44BC0173F09F048C021E2C2160C
:104E20002EE4D206E104F10408F040C08091D701DD
:104E30000E94DF1A853D9340C8F714B81092A20172
:104E40008091D7010E94DF1AEC0181E08093A201DA
:104E50008091D7010E94DF1AAC018091D10184B901
:104E6000DE01A41BB50BC091A401D091A501CD0119
:104E70000496099788F09E010E94B5389A0140E097
:104E800050E00E9481388091E101280F2093E101D8
:104E9000CC0DD11DC7FCDA9585010C1B1D0BC8017B
:104EA000C1968336910510F40093E20183E0CDB7FB
:104EB000DEB7EAE00C94EB38A0E0B0E0E2E6F7E21F
:104EC0000C94CF38C42ED12C2FE0429FF001112436
:104ED000E35BFE4F1082118294EF9283178210865B
:104EE0001186128613821482158216821386148606
:104EF0001586168690910601913009F47FC0B62E72
:104F0000F82E9A3091F4C1E1D1E0A12C07C088813C
:104F10008F1591F08B15A1F0A394279680910A012B
:104F2000A816A8F384E6A81269C06B2D8F2D0E94E5
:104F300099280097C9F41FC099819B11EBCF03C03A
:104F40008981F812E9CF6B817C818D819E81E12C72
:104F50000AE010E020E030E04A810E94B9128F3F61
:104F6000D9F683E6A82ED8CFFC01828193818C3DAF
:104F7000954008F443C08FE08C9DE0018D9DD00DDD
:104F80001124C35BDE4F40E06B2D8F2D0E94521B1E
:104F9000CE010E94D724823019F4CE010E9412263D
:104FA00080910601843120F58A3079F48FE08C9D60
:104FB000F0018D9DF00D1124E35BFE4F82818A3F4D
:104FC000BCF08BE08093060113C08FE08C9DF00154
:104FD0008D9DF00D1124E35BFE4F8281853F8CF7A0
:104FE00083819481A581B6810597A105B10548F714
:104FF0000E94551C17B818B814B815B8CDB7DEB74D
:10500000EAE00C94EB38E09106018E2F90E0FC0171
:105010007E97E730F105E0F4ED5BFF4F0C94A0388C
:1050200085E493E422E41BC08091070186FD14C04F
:1050300083E594E413C085E493E410C083E491E431
:105040000DC081E392E30AC081E392E325E407C047
:1050500080E090E020E003C088E798E727E4209311
:10506000B0019093B1018093B2010895CF92DF9285
:10507000EF92FF92CF93C82F15B88091CF0184B9DA
:105080008091D40187B988B98091D8010E94401BD2
:105090008430910500F1C090DA01D090DB01E12C61
:1050A000F12C893725E0920770F0C13061F414B813
:1050B0009091D4018091D501892B87B98091D80135
:1050C0000E94DF1A06C020E9C20E2AE1D21EE11CAE
:1050D000F11CC9EF0FC08091D20184B98091D80131
:1050E0000E94401B20EFC22E2BE2D22E27E0E22EA0
:1050F000F12CC8EF17B818B814B815B8DC0120EABD
:1051000036E841E050E00E94BC38A70196010E94B9
:105110005F382093BE013093BF014093C00150938C
:10512000C101C093C201CF91FF90EF90DF90CF906B
:10513000089590910B01EAE7F1E0992349F020816D
:10514000281303C02181261729F091503696F5CFF8
:10515000E0E0F0E0CF010895A0E0B0E0E2EBF8E29B
:105160000C94CD38A8950E94551C80910601813081
:1051700009F4ECC018B88091D50187B98091D701A6
:105180000E94DF1A982EA92E8091D10184B985B989
:1051900061E18091D0010E94FE1C8091D7010E94A4
:1051A000401BB82E892E8091CE0184B985B961E16A
:1051B0008091D0010E94FE1C8091D7010E94401B6B
:1051C0006C018091D8010E94DF1A8C010E94551C4D
:1051D00080910601813009F4B9C018B88091D501D9
:1051E00087B98091D7010E94DF1A7C0117B880919E
:1051F000D40188B987B915B88091D20184B960E12A
:105200008091D0010E94FE1C8091D7010E94401B1A
:10521000EC018091D8010E94DF1AC817D90718F055
:10522000C81BD90B02C0C0E0D0E0C01AD10A8091DF
:10523000CF0184B960E18091D0010E94FE1C809171
:10524000D7010E94401B8C018091D8010E94DF1A77
:10525000081B190B17B80C151D0548F4C601801B57
:10526000910BE92CFA2CCB2DD82D860103C0C80157
:105270008C199D09893E934008F068C0C630D1055D
:1052800008F464C0EC16FD0620F4CE018E199F09C7
:1052900003C0C7018C1B9D0B23E0E216F10420F034
:1052A0008436910508F452C0C832D10538F0C801DF
:1052B000875991098938914158F148C015B88091B2
:1052C000CF0184B98091D40188B987B98091D80180
:1052D0000E94401B7C018091CE0184B98091D50150
:1052E00088B987B98091D7010E94401B9C01C701F2
:1052F00064E170E00E943738C701861B970B821764
:105300009307A8F66E0D7F1D2617370780F61EC07F
:1053100080910601882311F08A3019F484E180938A
:10532000060180910B0196E0899FF0011124E65857
:10533000FE4F9091C80190839091C901918313838E
:105340000283D583C4838F5F80930B01CDB7DEB713
:10535000ECE00C94E938209107018091AF01909125
:10536000AE0120FF03C0682F892F01C0692F0E9462
:105370009928892B49F0109206011092070180911B
:1053800008018E7F809308010895A0E0B0E0EBEC67
:10539000F9E20C94CE38282F2170922E80FF06C09F
:1053A0001091CE01C091D40100E105C01091CF0150
:1053B000C091D50101E1C7708091D90180648093CB
:1053C0007C000E945D36DAE0C12CD12C7601AA2443
:1053D000AA9483E0B82EA895602F8091D0010E94F6
:1053E000FE1C8091D301812B84B9992021F086B1D4
:1053F0008C23E9F703C086B18C23E9F314B98091BB
:105400007A00806480937A0080917A0086FDFCCFD8
:105410008091780090917900992029F0C80ED91ECA
:10542000E11CF11C07C09501281B390BC21AD30AD5
:10543000E108F108D15079F6C701B6012AE030E061
:1054400040E050E00E948138A091A601B091A701F0
:105450000E94BC3820E034E040E050E00E948138F7
:105460003093B7012093B60180E48093A301CDB7B8
:10547000DEB7EBE00C94EA38A0E0B0E0E2E4FAE258
:105480000C94D138182F8091D0011130D1F4909123
:10549000D40197B998B99091CF01982B94B985B957
:1054A0008091D8010E94401B7C01C091A601D0913F
:1054B000A7018091D9010E94DF1A9E01281B390B98
:1054C00018C018B89091D50197B99091CE0195B9AF
:1054D000892B84B9E090A601F090A7018091D701B3
:1054E0000E94401BE81AF90A8091D9010E94DF1A34
:1054F0009C012115310511F421E030E0C701821B28
:10550000930BB9010E9437386B01E12CF12C20314B
:10551000310508F057C08091D3011130D1F490913A
:10552000CF01982B94B985B98091D8010E94401B76
:105530008C01C091A601D091A7018091D9010E9450
:10554000DF1AFE01E81BF90BC091DA01D091DB01F3
:1055500017C09091CE01892B84B90091A6011091BA
:10556000A7018091D7010E94401B081B190B809155
:10557000D9010E94DF1AFC01C091DC01D091DD014C
:10558000309711F4E1E0F0E0D80120EF3BE247E092
:1055900050E00E94BC389F0140E050E00E945F381C
:1055A000AAE0B0E00E94BC389E012057354E40E092
:1055B00050E00E945F38C216D306E406F50610F4E8
:1055C00069017A01C701B601CDB7DEB7E8E00C94F6
:1055D000ED38A0E0B0E0EFEEFAE20C94C938F82E16
:1055E0006B010E94B81B8091D30121E0F21226C00A
:1055F0009091CE01892B84B985B90E944F36C09114
:10560000A601D091A7018091D7010E94DF1AC81B83
:10561000D90B0091A6011091A7018091D9010E9498
:10562000DF1AF801E81BF90BA090DC01B090DD0156
:1056300088E49DE02DEF39E011E017C09091CF0193
:10564000892B84B98091D8010E94401BEC01809184
:10565000D9010E94DF1AFC01A090DA01B090DB01B1
:1056600080ED97E021ED33E012E02E173F0708F0C0
:10567000CDC0809106018E31D9F4809107019F2D14
:10568000982311F484600CC031E0F3120BC09091A8
:10569000AE018091C801981305C0F092060182E026
:1056A000809307018091080181608093080105C003
:1056B0008EE180930601F0920701CC16DD0610F40E
:1056C000CC19DD09DE0120EF3BE247E050E00E940B
:1056D000BC389F0140E050E00E945F38AAE0B0E093
:1056E0000E94BC3895012057354E40E050E00E94A2
:1056F0005F3829013A018F2D0E943C2A4B015C0141
:10570000461657066806790620F053014201C1E0AB
:1057100001C0C2E04090BA015090BB016090BC0152
:105720007090BD0181E040E0F81205C06091CA01AF
:105730008091C90104C06091C8018091CA010E9492
:105740005C270E94B01B8091070182FF1EC0009160
:1057500050011091510120915201309153016091FB
:10576000C3017091C4018091C5019091C601E09080
:105770004F014091C7010E94B912813009F4DBC08A
:105780008F2D84608093070106C0481459046A0471
:105790007B0408F0D0C080E00E9436288092BA01D5
:1057A0009092BB01A092BC01B092BD01C093B30125
:1057B0008091500190915101A0915201B0915301FB
:1057C0008093C3019093C401A093C501B093C60117
:1057D00080914F018093C7018091CA018093AD01F0
:1057E0008091C8019091C90121E0F21207C0809315
:1057F000AE019093AF0110920F019DC09093AE0146
:105800008093AF0181E080930F0195C031E6C3160C
:10581000D10408F090C08C179D0708F08CC08091CF
:10582000D7010E94DF1A6C018091D8010E94DF1A13
:105830009601281B390BC9012A3F3105C0F52FE11C
:1058400020930601212F246120930701113041F498
:10585000A091DC01B091DD01A057B54E22E007C058
:10586000A091DA01B091DB01A057B54E23E020935F
:105870000F014AE0489F9001499F300D11240E947A
:10588000A6389E0140E050E00E945F388091DE0122
:105890009091DF018217930718F4281B390B02C07F
:1058A00020E030E03093B5012093B4010EC080E2D7
:1058B00080930601812F846080930701113011F4D9
:1058C00088E001C089E080930F01812F0E94C529E3
:1058D000809108018160809308018091CA018093C2
:1058E000AD019091C8012091C901113029F4909324
:1058F000AE012093AF0104C02093AE019093AF019D
:1059000040E06091AF010E945C278091500190912E
:105910005101A0915201B09153018093C301909322
:10592000C401A093C501B093C60180914F0180933B
:10593000C7010E94B01BCDB7DEB7E0E10C94E5389B
:10594000A0E0B0E0E6EAFCE20C94D0388B3E914057
:1059500028F098EEE92EFF24F39403C088E2E82EA5
:10596000F12C9091CF018091D301892B84B9809142
:10597000D8010E94491B6C018091D30185B98091A7
:10598000D8010E94491BEC01C7018C0D9D1D8C178D
:105990009D0708F066C08091D00184B985B918B818
:1059A0008091D50187B98091D9010E94491B17B810
:1059B000BB24B3948C3B924008F0B12C8091D4016D
:1059C00087B98091D9010E94491B8C018091D70130
:1059D0000E94DF1A17B88017910738F4081B190BBB
:1059E000023C114010F4BB24B3948091D50188B9D6
:1059F00087B99091CE018091D301892B84B915B8D4
:105A00008091D7010E94491B8C018091D30185B9F7
:105A10008091D7010E94491B801B910B8C0118B803
:105A20008091D50187B99091CE018091D301892BC6
:105A300084B985B98091D9010E94491B88349F405F
:105A400028F089E18093070184E006C0B11009C005
:105A500089E28093070186E080930F01CC19DD096C
:105A600063C018B88091D50187B99091CE0180911B
:105A7000D301892B84B985B98091D7010E94491B34
:105A80008C018091CE0185B98091D7010E94491B7C
:105A9000E801C81BD90B8E0D9F1D8017910708F0D8
:105AA000EFC08091D00184B915B88091D50187B934
:105AB00088B98091D9010E94491B7C0118B8809156
:105AC000D40187B99091CF018091D301892B84B9FA
:105AD00085B98091D8010E94491B8C018091CF012A
